{
  "contractName": "Certificate",
  "abi": [
    {
      "anonymous": false,
      "inputs": [
        {
          "indexed": false,
          "internalType": "uint256",
          "name": "id",
          "type": "uint256"
        },
        {
          "indexed": false,
          "internalType": "string",
          "name": "title",
          "type": "string"
        },
        {
          "indexed": false,
          "internalType": "address",
          "name": "issuedTo",
          "type": "address"
        },
        {
          "indexed": false,
          "internalType": "address",
          "name": "issuedBy",
          "type": "address"
        }
      ],
      "name": "CertificateIssued",
      "type": "event"
    },
    {
      "inputs": [],
      "name": "certCount",
      "outputs": [
        {
          "internalType": "uint256",
          "name": "",
          "type": "uint256"
        }
      ],
      "stateMutability": "view",
      "type": "function"
    },
    {
      "inputs": [
        {
          "internalType": "uint256",
          "name": "",
          "type": "uint256"
        }
      ],
      "name": "certificates",
      "outputs": [
        {
          "internalType": "uint256",
          "name": "id",
          "type": "uint256"
        },
        {
          "internalType": "string",
          "name": "title",
          "type": "string"
        },
        {
          "internalType": "address",
          "name": "issuedTo",
          "type": "address"
        },
        {
          "internalType": "address",
          "name": "issuedBy",
          "type": "address"
        },
        {
          "internalType": "uint256",
          "name": "timestamp",
          "type": "uint256"
        }
      ],
      "stateMutability": "view",
      "type": "function"
    },
    {
      "inputs": [
        {
          "internalType": "address",
          "name": "_to",
          "type": "address"
        },
        {
          "internalType": "string",
          "name": "_title",
          "type": "string"
        }
      ],
      "name": "issueCertificate",
      "outputs": [],
      "stateMutability": "nonpayable",
      "type": "function"
    },
    {
      "inputs": [
        {
          "internalType": "uint256",
          "name": "_id",
          "type": "uint256"
        }
      ],
      "name": "getCertificateTitle",
      "outputs": [
        {
          "internalType": "string",
          "name": "",
          "type": "string"
        }
      ],
      "stateMutability": "view",
      "type": "function"
    }
  ],
  "bytecode": "0x608060405234801561000f575f80fd5b50610b478061001d5f395ff3fe608060405234801561000f575f80fd5b506004361061004a575f3560e01c8063663b3e221461004e578063b4c70dc514610082578063bb721aab146100b2578063d4e207a2146100ce575b5f80fd5b61006860048036038101906100639190610446565b6100ec565b604051610079959493929190610549565b60405180910390f35b61009c60048036038101906100979190610446565b6101e1565b6040516100a991906105a1565b60405180910390f35b6100cc60048036038101906100c79190610717565b610284565b005b6100d66103fc565b6040516100e39190610771565b60405180910390f35b5f602052805f5260405f205f91509050805f015490806001018054610110906107b7565b80601f016020809104026020016040519081016040528092919081815260200182805461013c906107b7565b80156101875780601f1061015e57610100808354040283529160200191610187565b820191905f5260205f20905b81548152906001019060200180831161016a57829003601f168201915b505050505090806002015f9054906101000a900473ffffffffffffffffffffffffffffffffffffffff1690806003015f9054906101000a900473ffffffffffffffffffffffffffffffffffffffff16908060040154905085565b60605f808381526020019081526020015f206001018054610201906107b7565b80601f016020809104026020016040519081016040528092919081815260200182805461022d906107b7565b80156102785780601f1061024f57610100808354040283529160200191610278565b820191905f5260205f20905b81548152906001019060200180831161025b57829003601f168201915b50505050509050919050565b60015f81548092919061029690610814565b91905055506040518060a0016040528060015481526020018281526020018373ffffffffffffffffffffffffffffffffffffffff1681526020013373ffffffffffffffffffffffffffffffffffffffff168152602001428152505f8060015481526020019081526020015f205f820151815f0155602082015181600101908161031f91906109f8565b506040820151816002015f6101000a81548173ffffffffffffffffffffffffffffffffffffffff021916908373ffffffffffffffffffffffffffffffffffffffff1602179055506060820151816003015f6101000a81548173ffffffffffffffffffffffffffffffffffffffff021916908373ffffffffffffffffffffffffffffffffffffffff160217905550608082015181600401559050507f94e8d73f2d86ce1bb1178a699f4e2f300f6ea48cf9ddd1bc5aea82af3c2dff8f6001548284336040516103f09493929190610ac7565b60405180910390a15050565b60015481565b5f604051905090565b5f80fd5b5f80fd5b5f819050919050565b61042581610413565b811461042f575f80fd5b50565b5f813590506104408161041c565b92915050565b5f6020828403121561045b5761045a61040b565b5b5f61046884828501610432565b91505092915050565b61047a81610413565b82525050565b5f81519050919050565b5f82825260208201905092915050565b5f5b838110156104b757808201518184015260208101905061049c565b5f8484015250505050565b5f601f19601f8301169050919050565b5f6104dc82610480565b6104e6818561048a565b93506104f681856020860161049a565b6104ff816104c2565b840191505092915050565b5f73ffffffffffffffffffffffffffffffffffffffff82169050919050565b5f6105338261050a565b9050919050565b61054381610529565b82525050565b5f60a08201905061055c5f830188610471565b818103602083015261056e81876104d2565b905061057d604083018661053a565b61058a606083018561053a565b6105976080830184610471565b9695505050505050565b5f6020820190508181035f8301526105b981846104d2565b905092915050565b6105ca81610529565b81146105d4575f80fd5b50565b5f813590506105e5816105c1565b92915050565b5f80fd5b5f80fd5b7f4e487b71000000000000000000000000000000000000000000000000000000005f52604160045260245ffd5b610629826104c2565b810181811067ffffffffffffffff82111715610648576106476105f3565b5b80604052505050565b5f61065a610402565b90506106668282610620565b919050565b5f67ffffffffffffffff821115610685576106846105f3565b5b61068e826104c2565b9050602081019050919050565b828183375f83830152505050565b5f6106bb6106b68461066b565b610651565b9050828152602081018484840111156106d7576106d66105ef565b5b6106e284828561069b565b509392505050565b5f82601f8301126106fe576106fd6105eb565b5b813561070e8482602086016106a9565b91505092915050565b5f806040838503121561072d5761072c61040b565b5b5f61073a858286016105d7565b925050602083013567ffffffffffffffff81111561075b5761075a61040f565b5b610767858286016106ea565b9150509250929050565b5f6020820190506107845f830184610471565b92915050565b7f4e487b71000000000000000000000000000000000000000000000000000000005f52602260045260245ffd5b5f60028204905060018216806107ce57607f821691505b6020821081036107e1576107e061078a565b5b50919050565b7f4e487b71000000000000000000000000000000000000000000000000000000005f52601160045260245ffd5b5f61081e82610413565b91507fffffffffffffffffffffffffffffffffffffffffffffffffffffffffffffffff82036108505761084f6107e7565b5b600182019050919050565b5f819050815f5260205f209050919050565b5f6020601f8301049050919050565b5f82821b905092915050565b5f600883026108b77fffffffffffffffffffffffffffffffffffffffffffffffffffffffffffffffff8261087c565b6108c1868361087c565b95508019841693508086168417925050509392505050565b5f819050919050565b5f6108fc6108f76108f284610413565b6108d9565b610413565b9050919050565b5f819050919050565b610915836108e2565b61092961092182610903565b848454610888565b825550505050565b5f90565b61093d610931565b61094881848461090c565b505050565b5b8181101561096b576109605f82610935565b60018101905061094e565b5050565b601f8211156109b0576109818161085b565b61098a8461086d565b81016020851015610999578190505b6109ad6109a58561086d565b83018261094d565b50505b505050565b5f82821c905092915050565b5f6109d05f19846008026109b5565b1980831691505092915050565b5f6109e883836109c1565b9150826002028217905092915050565b610a0182610480565b67ffffffffffffffff811115610a1a57610a196105f3565b5b610a2482546107b7565b610a2f82828561096f565b5f60209050601f831160018114610a60575f8415610a4e578287015190505b610a5885826109dd565b865550610abf565b601f198416610a6e8661085b565b5f5b82811015610a9557848901518255600182019150602085019450602081019050610a70565b86831015610ab25784890151610aae601f8916826109c1565b8355505b6001600288020188555050505b505050505050565b5f608082019050610ada5f830187610471565b8181036020830152610aec81866104d2565b9050610afb604083018561053a565b610b08606083018461053a565b9594505050505056fea26469706673582212204623cbd8b02e9182f8fb4b1bb4326a64a8431a7f844c3edfbeed306d635b40b164736f6c63430008140033",
  "immutableReferences": {},
  "source": "// SPDX-License-Identifier: MIT\npragma solidity ^0.8.0;\n\ncontract Certificate {\n    struct Cert {\n        uint id;\n        string title;\n        address issuedTo;\n        address issuedBy;\n        uint timestamp;\n    }\n\n    mapping(uint => Cert) public certificates;\n    uint public certCount;\n\n    event CertificateIssued(uint id, string title, address issuedTo, address issuedBy);\n\n    function issueCertificate(address _to, string memory _title) public {\n        certCount++;\n        certificates[certCount] = Cert(certCount, _title, _to, msg.sender, block.timestamp);\n        emit CertificateIssued(certCount, _title, _to, msg.sender);\n    }\n\n    // Get the title (string) for a certificate\n    function getCertificateTitle(uint _id) public view returns (string memory) {\n        return certificates[_id].title;\n    }\n}\n            // REMOVED verifyCertificate function. Use mapping getter and getCertificateTitle instead.\n",
  "sourcePath": "D:\\SkillsChain-Project\\backend\\blockchain\\contracts\\Certificate.sol",
  "compiler": {
    "name": "solc",
    "version": "0.8.20+commit.a1b79de6.Emscripten.clang"
  },
  "schemaVersion": "3.4.16",
  "updatedAt": "2025-09-18T12:50:33.493Z",
  "devdoc": {
    "kind": "dev",
    "methods": {},
    "version": 1
  },
  "userdoc": {
    "kind": "user",
    "methods": {},
    "version": 1
  }
}